:020000040800F2
:100000000050002021470008A5440008A74400082C
:10001000A9440008AB440008AD44000800000000FB
:10002000000000000000000000000000AF440008D5
:10003000B144000800000000B3440008B5440008C3
:1000400069470008694700086947000869470008D0
:1000500069470008694700086947000869470008C0
:1000600069470008694700086947000869470008B0
:10007000F544000869470008694700086947000817
:100080006947000869470008694700086947000890
:100090006947000869470008694700086947000880
:1000A0006947000869470008694700086947000870
:1000B0006947000869470008694700086947000860
:1000C0006947000869470008694700086947000850
:1000D00069470008A14A0008694700086947000805
:1000E00069470008694700086947000800000000E8
:1000F0000000000000000000000000000000000000
:0C01000000000000000000005FF808F1A3
:10010C000348044B834202D0034B03B1184770479A
:10011C008C0000208C0000200000000005480649DF
:10012C000B1AD90F01EBA301491002D0034B03B1F9
:10013C00184770478C0000208C0000200000000045
:10014C0010B5064C237843B9FFF7DAFF044B13B113
:10015C000448AFF300800123237010BD8C000020F5
:10016C0000000000585E000808B5044B1BB10449A0
:10017C000448AFF30080BDE80840CFE70000000062
:10018C0090000020585E0008014B1868704700BFB3
:10019C000000002070B50D4E0D4D761BB61006D02C
:1001AC00002455F8043B01349847A642F9D1094E76
:1001BC00094D05F04BFE761BB61006D0002455F801
:1001CC00043B01349847A642F9D170BDAC680008D5
:1001DC00AC680008B0680008AC680008032A10B5C9
:1001EC0016D940EA010C1CF0030F04460B4622D131
:1001FC0019462046D1F800E0D0F800C00433F4458D
:10020C0004F1040417D1043A032A20461946EFD806
:10021C00541EA2B100F1FF3C013901E0C3180CD00F
:10022C001CF801EF11F8012FA4EB0C039645F5D047
:10023C00AEEB020010BD541EECE7184610BD104684
:10024C0010BD00BF844641EA000313F0030349D1FB
:10025C00403A23D30B6803604B6843608B68836020
:10026C00CB68C3600B6903614B6943618B69836124
:10027C00CB69C3610B6A03624B6A43628B6A83620C
:10028C00CB6AC3620B6B03634B6B43638B6B8363F4
:10029C00CB6BC36340304031403ADBD230320BD3AE
:1002AC000B6803604B6843608B688360CB68C360EA
:1002BC0010301031103AF3D20C3205D351F8043B04
:1002CC0040F8043B043AF9D2043208D0D2071CBFE0
:1002DC0011F8013B00F8013B01D30B880380604609
:1002EC00704700BF082A13D38B07B1D010F003035B
:1002FC00AED0C3F10403D21ADB071CBF11F8013BCB
:10030C0000F8013BA4D331F8023B20F8023B9FE7F5
:10031C00043AD9D3013A11F8013B00F8013BF9D268
:10032C000B7803704B7843708B7883706046704702
:10033C0088420DD98B1883420AD900EB020CBAB152
:10034C00624613F801CD994202F801CDF9D17047FC
:10035C000F2A0ED8034602F1FF3C4AB10CF1010CF6
:10036C00013B8C4411F8012B614503F8012FF9D1A5
:10037C00704740EA01039B074FD1A2F1100370B5FF
:10038C0001F1200C23F00F0501F1100E00F1100407
:10039C00AC441B095EF8105C0EF1100E44F8105CB6
:1003AC005EF81C5C103444F81C5C5EF8185C44F875
:1003BC00185C5EF8145CE64544F8145CEAD1013331
:1003CC0012F00C0F01EB031102F00F0400EB0313FE
:1003DC0027D08E46043C24F003064FEA940C1E44AE
:1003EC001C1F5EF8045B44F8045FB442F9D10CF1B5
:1003FC00010402F0030203EB840301EB840102F11C
:10040C00FF3C4AB10CF1010C013B8C4411F8012B5F
:10041C00614503F8012FF9D170BD034602F1FF3C91
:10042C009CE72246EBE700BF830730B548D0541E4B
:10043C00002A3FD00346CAB201E0013C3AD303F88C
:10044C00012B9D07F9D1032C2DD9CDB245EA0525F9
:10045C000F2C45EA054536D9A4F1100222F00F0CF9
:10046C0003F1200EE6444FEA121C03F1100242E99C
:10047C00045542E9025510327245F8D10CF10102D3
:10048C0014F00C0F03EB021204F00F0C13D0ACF1B0
:10049C00040323F003030433134442F8045B934234
:1004AC00FBD10CF003042CB1CAB21C4403F8012B91
:1004BC009C42FBD130BD64461346002CF4D1F9E7C5
:1004CC0003461446BFE71A46A446E0E708B410B545
:1004DC00002A04469DB031DB4FF402734FF6FF7CCB
:1004EC00ADF814300291069120AB15D0013A04926C
:1004FC00079202A91F9A0193ADF816C000F0BEFA3C
:10050C00421C01DA8B2323600022029B1A701DB05F
:10051C00BDE8104001B070470492079202A91F9ADF
:10052C000193ADF816C000F0A9FA431C01DA8B2335
:10053C0023601DB0BDE8104001B070478B234FF015
:10054C00FF302360F5E700BF0CB410B51E4B00293B
:10055C001C689CB033DB4FF402734FF6FF7CADF894
:10056C001430029006901FAB16D001391E9A0491DC
:10057C000791204602A90193ADF816C000F07EFA4F
:10058C00421C01DA8B2323600022029B1A701CB0E0
:10059C00BDE8104002B070470491079120461E9AA6
:1005AC0002A90193ADF816C000F068FA431C01DAF9
:1005BC008B2323601CB0BDE8104002B070478B2326
:1005CC004FF0FF302360F5E70000002080EA010CBB
:1005DC001CF0030F37D110F0030C20F0030021F0B6
:1005EC00030150F8042B08BF51F8043B0ED08CF0DB
:1005FC00030C6FF07F434FEACC0C23FA0CFC51F840
:10060C00043B42EA0C0243EA0C0300BFA2F1013C9A
:10061C009A4201BF2CEA020C1CF0803F50F8042BCC
:10062C0051F8043BF2D04FEA02604FEA1222012843
:10063C0028BFB0EB036F08BF1B0AF4D003F0FF0315
:10064C00000EC01A704710F0030F0AD010F8012BDF
:10065C0011F8013B012A28BF9A42F4D0A2EB030007
:10066C0070474DF8045D50F8042B01F0030521F0A0
:10067C00030151F8043B022D26D04DD822F07F45C2
:10068C00B5EB132FA2F1013C2CEA020C0DD11CF09E
:10069C00803C08BF51F8043B0AD185EA0205B5EB52
:1006AC00036F0CD150F8042BE8E74FEA13235BE0FF
:1006BC003CF07F4C54D10B784FEA126554E04FEA72
:1006CC00126503F0FF034FE04FEA0245A2F1013C33
:1006DC004FEA15452CEA020CB5EB134F18D11CF060
:1006EC00803C08BF51F8043B07D185EA0205B5EB05
:1006FC00034F09D150F8042BE6E75FEA0C4C2FD1DD
:10070C000B884FEA12452FE04FEA03434FEA12459C
:10071C004FEA134328E000BF02F0FF05B5EB136F5F
:10072C00A2F1013C2CEA020C0DD11CF0803C08BF5C
:10073C0051F8043B0AD185EA0205B5EB032F0AD127
:10074C0050F8042BE8E74FEA13630DE012F0FF0FAB
:10075C0006D051F8043B4FEA122523F07F4303E007
:10076C004FF0000020BC704705F0FF0203F0FF00C3
:10077C00012828BF904204BF2D0A1B0AF4D0A2EB1B
:10078C00000020BC704700BF20F0030110F00300F4
:10079C00C0F1000051F8043B00F1040C4FEACC0C02
:1007AC006FF000021CBF22FA0CF213434FF0010C45
:1007BC004CEA0C2C4CEA0C4CA3EB0C0222EA030284
:1007CC0012EACC1204BF51F8043B0430F4D0C2F14D
:1007DC00000102EA0102B2FA82F2C2F11F0200EB3E
:1007EC00D200704710B5194C002924689AB028DB48
:1007FC00009004904FF402704FF6FF7CADF80C00A3
:10080C0011D001390291059120466946ADF80EC010
:10081C0000F034F9421C01DA8B2323600022009B88
:10082C001A701AB010BD0291059120466946ADF8B8
:10083C000EC000F023F9431C01DA8B2323601AB09D
:10084C0010BD8B234FF0FF302360F8E70000002031
:10085C0030B51446002C05469BB029DB1A464FF4E4
:10086C0002734FF6FF7C00910491ADF80C3011D05F
:10087C00013C69461E9B02940594ADF80EC000F035
:10088C00FDF8421C01DA8B232B600022009B1A70AE
:10089C001BB030BD1E9B694602940594ADF80EC08A
:1008AC0000F0ECF8431C01DA8B232B601BB030BD3D
:1008BC008B234FF0FF302B60F8E700BF2DE9F0479A
:1008CC008F680C469F421D46164638D8824688894A
:1008DC0010F4906F0ED13D4608682A463146FFF75A
:1008EC0027FD0020A2682368D21B2B44A260236042
:1008FC00BDE8F0874B69096903EB4308236808EBF3
:10090C00D878A3EB01096B1C4FEA68084B444345AC
:10091C00424684BF98464246430513D5114650467D
:10092C0000F060FC074608B34A462169FFF78AFCD1
:10093C00A38923F4906343F08003A38107E01F464F
:10094C000868CAE7504600F0A9FC074650B107EB0F
:10095C000900A8EB09032761C4F814802F46A36093
:10096C002060BAE75046216900F0D6FB0C23CAF888
:10097C000030A3894FF0FF3043F04003A381B7E769
:10098C002DE9F04F9368914683B0002B6ED0176819
:10099C0080460C4608688D68083744E0B4F80CC0F3
:1009AC001CF4906F2ED0D4E90413451A03EB4303C7
:1009BC0003EBD373AA194FEA630A531C53455246EF
:1009CC0084BF9A4652461CF4806F36D0114640467E
:1009DC0000F008FC00283AD02A4621690190FFF764
:1009EC0031FCA289019B22F4906242F08002A28128
:1009FC005819AAEB0505A560C4F814A03546B246F3
:100A0C002361206059465246FFF792FCD9F8083012
:100A1C00A16820684D1B50449E1BA5602060C9F83E
:100A2C0008601EB3083757E902B6002EFAD0B5425B
:100A3C00AA46B3D93546B246E4E7404600F02EFC50
:100A4C0003460028D4D14046216900F065FB0C23F5
:100A5C0000224FF0FF30C8F80030A38943F0400368
:100A6C00A381C9E9012203B0BDE8F08F0023184629
:100A7C00C9F8043003B0BDE8F08F00BF2DE9F04F8A
:100A8C001C468B890F461D06804692469DB003D5A9
:100A9C000B69002B00F0F3800023099330232022F4
:100AAC008DF82A309AF80030039401257B4C8DF890
:100ABC002920002B76D0D14603E019F8013F002BFA
:100ACC0079D0252BF9D1B9EB0A0B77D199F8002005
:100ADC00002A67D000234FF0FF3209F10109CDE95C
:100AEC000523049307938DF853301A9304E0001BED
:100AFC0005FA00F018430490CA460522204619F85E
:100B0C00011B00F0C1FA049B0028F0D1D80644BFA9
:100B1C0020228DF85320190748BF2B229AF8001079
:100B2C0048BF8DF853202A2956D1039A11680432F4
:100B3C00002903927EDB07919AF801100AF1010A51
:100B4C002E295BD0DFF858910322484600F09CFA1E
:100B5C0048B14022049BA0EB090002FA00F00343C9
:100B6C000AF1010A04931AF8011B06224D488DF86C
:100B7C00281000F089FA002862D04B4B002B52D081
:100B8C0003A900913A464046484B04A9AFF30080B4
:100B9C000646721C06D0099B334409939AF8003020
:100BAC00002B88D1BB895B064CBF4FF0FF300998F6
:100BBC001DB0BDE8F08FB9EB0A0BF3D05B46524683
:100BCC0039464046FFF77AFE0130EBD0099B99F885
:100BDC0000205B4409937BE7A1F13002092AAFD8CE
:100BEC00079B1AF8011F03EB830302EB4303A1F1EC
:100BFC003002092AF5D92E290793A3D19AF80110AE
:100C0C002A2927D1039B0AF102001A680433002A0F
:100C1C000393B8BF4FF0FF339AF802100592824647
:100C2C00B8BF05938EE7039B073323F00703083304
:100C3C000393B0E7494243F00203079104937BE727
:100C4C0003A900913A464046184B04A900F0C6F897
:100C5C0006469EE70023A1F13002092A0AF1010A97
:100C6C0005933FF66FAF1AF8011F03EB830302EBFA
:100C7C004303A1F13002092AF5D9059362E740211B
:100C8C0000F0B0FA3860386110B140237B6103E7A3
:100C9C000C234FF0FF30C8F8003089E7706800086B
:100CAC00786800087C68000800000000C90800088B
:100CBC002DE9F04791461E460A698B680C469A420C
:100CCC00B8BF1A46C9F8002091F843300546DDF844
:100CDC00208013B10132C9F80020226891065DD53D
:100CEC00D9F800300233C9F80030226812F0060F30
:100CFC0011461ED1E168CB1A002BD8BF114618DD66
:100D0C00002704F1190A06E0D9F80030E268A2EBDA
:100D1C00030CBC450CDD0123524631462846C04726
:100D2C00013007F10107EFD14FF0FF30BDE8F0873C
:100D3C00216894F84330003B18BF01238A060AD57A
:100D4C003021E21882F8431094F845105A1C2244C2
:100D5C00023382F843103146284604F14302C0475F
:100D6C000130E1D0236803F00603042B1DD0A368E7
:100D7C002269934225DD00279B1A1F4404F11A09AE
:100D8C00002401E0BC421CDA01234A4631462846C5
:100D9C00C047013004F10104F4D1C5E712F0060F8D
:100DAC0012D0003B18BF0123D5E7D9F80030E16819
:100DBC002269C91AA36821EAE1779342DCDC002995
:100DCC00DCDC0020BDE8F087E168D9F80030CB1AF4
:100DDC00002BD8BF114693DCABE700BF2DE9F043E5
:100DEC0017460A7E85B00C46064698460C9D01F1C6
:100DFC00430C002A33D0A2F15803D9B2202967D86A
:100E0C00202B65D8DFE813F0DD006400640064007B
:100E1C006400640064006400640064006400A30067
:100E2C006E0064006400640064006E006400640082
:100E3C006400640021007F00BF0064006400AE0009
:100E4C0064007F0064006400E40023681A0640F12B
:100E5C0002812B686269191D29601B681A600023C6
:100E6C00E14623613B4621463046CDF8008003AA7B
:100E7C00FFF71EFF013020D04A4639463046236921
:100E8C00C047013019D02368E0689B07039919D536
:100E9C00431A002B16DD002504F1190904E0E06863
:100EAC000399431AAB420DDD01234A4639463046BD
:100EBC00C047013005F10105F1D14FF0FF3005B00D
:100ECC00BDE8F0838842B8BF084605B0BDE8F083A2
:100EDC00012384F8422004F142092361002384F8A1
:100EEC004330BFE72368190602D45A0600F1BF80CD
:100EFC0029680A68043129601146002A6ADB0A2530
:100F0C00DFF87CE110E02368180640F19A802B682A
:100F1C00191D296019686F2A0CBF08250A25DFF8EE
:100F2C0060E1002384F843306268002AA2607DDB14
:100F3C00236823F004032360002959D1002A77D1B8
:100F4C00E146082D63D0ACEB090323618AE701224B
:100F5C002B6804F14209196804332B6084F84210A1
:100F6C002261BBE72B6800211A1D2A60D3F8009080
:100F7C006268484600F088F800287FD0A0EB090092
:100F8C0060602061AAE7236843F020032360782285
:100F9C00DFF8F0E084F845202A68111D2960190655
:100FAC0042D45D0640D51188D80744BF43F02003D6
:100FBC002360002943D12368102523F020032360EC
:100FCC00AFE75823DFF8B8E084F845302368E3E74F
:100FDC002368DCE72D2284F8432062684942002A0A
:100FEC00A26002DB23F0040323600A25DFF890E003
:100FFC00E146B1FBF5F30A4605FB131019461EF842
:10100C000030AA4209F8013DF3D2082D9BD1236888
:10101C00D90798D5626823699A4294DC302309F188
:10102C00FF3989F800308EE71168BDE70029DFD160
:10103C009EF8003004F1420984F8423081E7102513
:10104C006FE713F0400F2B6803F1040129600CBF0C
:10105C00196819885FE713F0400F2B68626903F178
:10106C00040129601B6814BF1A801A60F7E62A680D
:10107C00B2F9001004322A600A463EE7606880E745
:10108C0084680008986800085FFA81FC810710D01A
:10109C000346511E2AB90AE09A0718460AD00139AC
:1010AC0005D3184613F8012B6245F5D17047002083
:1010BC007047114603290CD80029F8D00346014487
:1010CC0001E08B42F3D0184613F8012B6245F8D19E
:1010DC00ECE7024610B54CEA0C2444EA04441046F2
:1010EC00036804326340A3F1013E2EEA030313F0BC
:1010FC00803F04D1043903291046F0D851B103467E
:10110C00014401E08B4205D0184613F8012B6245CF
:10111C00F8D110BD002010BD002952D038B551F8BF
:10112C00043C0C1F002BB8BFE418054600F0F0F887
:10113C002B4A1368002B45D0A3420CD921686018A8
:10114C00834228D0636028461460BDE8384000F024
:10115C00E1B8A3420FD81A465B68002BF9D111688D
:10116C00501884421DD034D3636054602846BDE8C7
:10117C00384000F0CFB811685018A04215D028D8CC
:10118C00216860188342EFD118685B680144C4E998
:10119C0000135460EAE718685B680144C4E9001363
:1011AC00D1E7236819441160E0E720680144501826
:1011BC0083421160DAD1D3E900030144C2E9001380
:1011CC00D4E77047284663601460BDE8384000F0EF
:1011DC00A1B80C2328462B60BDE8384000F09AB823
:1011EC00A8000020F8B5CD1C25F0030508350C2D02
:1011FC0038BF0C25002D064623DBA94221D8264FEB
:10120C0000F086F83A6822B3144603E0636822467D
:10121C00FBB11C4623685B1BF8D40B2B15D86368F9
:10122C0094420CBF3B605360304600F073F804F1FD
:10123C000B00231D20F00700C21A01D01B1AA3506B
:10124C00F8BD0C2300203360F8BD23601C442560DE
:10125C00EAE77968D1B12946304600F047F8431CDB
:10126C0001460CD0C41C24F00304A04205D0304627
:10127C00611A00F03BF8013001D02560D4E70C2353
:10128C003046336000F046F80020F8BD304600F0E0
:10129C002DF87860DFE700BFA8000020F8B51446F1
:1012AC00F9B1CAB106460D4600F036F8A04202D399
:1012BC002F463846F8BD21463046FFF793FF0746C8
:1012CC000028F6D022462946FEF7BCFF30462946B8
:1012DC00FFF722FF3846F8BD2746FFF71DFF3846BB
:1012EC00F8BD1146BDE8F840FFF77CBF002238B5C9
:1012FC00064D044608462A6003F0ECF9431C00D066
:10130C0038BD2B68002BFBD0236038BDB00000200B
:10131C00704700BF704700BF51F8040C0028A0F1C3
:10132C000400BCBF0B58C018704700BF70470000CA
:10133C0038B50E4B054618784FF47A73B3FBF0F3BF
:10134C000B4A1068B0FBF3F000F034FD044658B9BA
:10135C000F2D09D8024629464FF0FF3000F0D6FC7D
:10136C002046044B1D6038BD0120FCE768000020BE
:10137C00640000206C000020074A08B513680320A5
:10138C0043F01003136000F0AFFC0F20FFF7D0FF09
:10139C0003F0B0F8002008BD00200240034A044BC3
:1013AC0011681B780B441360704700BFB400002019
:1013BC0068000020014B1868704700BFB400002083
:1013CC0038B50446FFF7F6FF0546631C1EBF044BF9
:1013DC001B78E418FFF7EEFF431BA342FAD338BD8A
:1013EC00680000202DE9F341054638B30368DB079C
:1013FC0010D42B689F075ED42B68190700F19580D9
:10140C002B685A0700F1C180E869002840F02C8154
:10141C00002029E0904C636803F00C03042B07D0E8
:10142C00636803F00C03082B0AD16368DE0307D54D
:10143C0023689C03DDD56B68002BDAD1012013E007
:10144C006B68B3F5803F12D1236843F4803323607B
:10145C00FFF7B0FF064623689803CAD4FFF7AAFF2C
:10146C00801B6428F7D9032002B0BDE8F0819BB93A
:10147C00236823F480332360236823F480232360C0
:10148C00FFF798FF064623689903B2D5FFF792FF42
:10149C00801B6428F7D9E6E7B3F5A02F236803D1A6
:1014AC0043F480232360CFE723F480332360236845
:1014BC0023F48023CBE7684C636813F00C0F07D040
:1014CC00636803F00C03082B10D16368DA030DD4A6
:1014DC0023689B0702D52B69012BAFD123686A695E
:1014EC0023F0F80343EAC203236085E72A695B4BC8
:1014FC006AB101221A60FFF75DFF064623689F0759
:10150C00ECD4FFF757FF801B0228F7D9ABE71A6022
:10151C00FFF750FF0646236898077FF56DAFFFF77E
:10152C0049FF801B0228F6D99DE7AA694A4E4B4B0E
:10153C00E2B10122C3F88024FFF73CFF0446736A32
:10154C009B070DD54FF4FA52454B1B68B3FBF2F3D6
:10155C00019300BF019B5A1E0192002BF9D14FE75A
:10156C00FFF728FF001B0228E9D97CE7C3F8802489
:10157C00FFF720FF0446736A9F077FF541AFFFF723
:10158C0019FF001B0228F6D96DE7334CE369D8002C
:10159C0024D40127E36943F08053E361E36903F04A
:1015AC0080530093009B2F4E3368D90518D5EB68F8
:1015BC00012B26D1236A43F001032362FFF7FAFEC5
:1015CC0041F288380646236A9B073FD5002F3FF42B
:1015DC001BAFE36923F08053E36115E70027E2E7D3
:1015EC00336843F480733360FFF7E4FE804633685E
:1015FC00DA05DCD4FFF7DEFEA0EB08006428F6D990
:10160C0031E7ABB9236A41F2883823F00103236236
:10161C00236A23F004032362FFF7CCFE0646236AF9
:10162C009807D3D5FFF7C6FE801B4045F7D91AE7BC
:10163C00052B236A03D143F004032362BAE723F09A
:10164C0001032362236A23F00403B6E7FFF7B2FE1B
:10165C00801B4045B7D906E700100240000042420B
:10166C0064000020007000402A4C636803F00C03F7
:10167C00082B3ED00022284B02281A662CD1FFF7EB
:10168C0099FE06462368990120D42B6AB3F5803F56
:10169C0005D16268A96822F400320A436260696A63
:1016AC0062680B4322F474121343012263601A4BD9
:1016BC001A66FFF77FFE054623689A013FF5A8AE30
:1016CC00FFF778FE401B0228F6D9CCE6FFF772FE36
:1016DC00801B0228D6D9C6E6FFF76CFE05462368A8
:1016EC009B017FF595AEFFF765FE401B0228F6D9EE
:1016FC00B9E601283FF4B8AE63682A6A03F4803176
:10170C0091427FF49BAE6A6A03F4701393423FF4E8
:10171C007FAE93E600100240000042420D4A53682F
:10172C0003F00C01082912D10B48C3F38341DB03EE
:10173C00405C09D55368094AC3F340435043084AF7
:10174C00D35CB0FBF3F07047064B5843704703482B
:10175C00704700BF00100240895F000800127A0039
:10176C00995F000800093D002DE9F0410D46044643
:10177C0010B90120BDE8F081444A136803F0070357
:10178C008B4228D321688E0730D4CA0743D43F4AF2
:10179C00136803F00703AB4265D822683C4D12F086
:1017AC00040F6CD1130706D56B68226923F46053C0
:1017BC0043EAC2036B60FFF7B1FF6B68354AC3F3B2
:1017CC000313D35CD840344B1860344B1868FFF7C4
:1017DC00AFFD0020CEE7136823F007030B43136023
:1017EC00136803F007038B42C3D1CBE7284B11F0EE
:1017FC00040F1EBF5A6842F4E0625A60080742BFE9
:10180C005A6842F460525A605A68A06822F0F0029A
:10181C0002435A60B9E762681D4E012A33681AD137
:10182C0013F4003FA5D0736841F2883823F003030A
:10183C0013437360FFF7BEFD07467368626803F0DD
:10184C000C03B3EB820FA2D0FFF7B4FDC01B4045D5
:10185C00F3D903208EE7022A02D113F0007FE1E7CF
:10186C0013F0020FDEE7136823F007032B4313601A
:10187C00136803F00703AB427FF47BAF8DE76B6813
:10188C00E16823F4E0630B436B608BE700200240BC
:10189C0000100240715F0008640000206C00002002
:1018AC00044B054A5B68C3F30223D35C034A1068FC
:1018BC00D840704700100240815F0008640000208F
:1018CC00044B054A5B68C3F3C223D35C034A10681C
:1018DC00D840704700100240815F0008640000206F
:1018EC00022808B544D0102803D0012822D00020AB
:1018FC0034E0254B5A68186810F080702ED0C2F373
:10190C0083412248D20348BF5A68405C41BF2049FA
:10191C00C2F34042895C1F4A5B684CBFB2FBF1F2D8
:10192C001D4A5B0202FB00F018D403234000B0FBFD
:10193C00F3F013E040F20231134A136A1940B1F587
:10194C00817F1ED003F44073B3F5007F07D149F6B5
:10195C004043506A10F0020018BF184608BDB3F59A
:10196C00407FC4D110684FF2244310F40030F3E7E9
:10197C00FFF7A6FF044B5B68C3F3813301335B00B5
:10198C00D5E74FF40040E9E7001002409B5F0008E8
:10199C00AB5F000800127A0000093D002DE9F74FFB
:1019AC0000221646644F654BDFF894C1DFF894E1D2
:1019BC000D6835FA06F402D103B0BDE8F08F4FF094
:1019CC00010808FA06F805EA080438EA05057BD18F
:1019DC004D68032D07D8013D022D00F28880DFE809
:1019EC0005F0969BA100122D00F099806ED8112D58
:1019FC0000F08F80FF2C98BF82464FF00F0988BFF4
:101A0C0000F1040A4FEA8605DAF8008088BF203D11
:101A1C0009FA05FB28EA0B0802FA05F548EA050560
:101A2C00CAF80050D1F804A01AF0805F4CD0BD6900
:101A3C0026F0030845F00105BD61BD6908F1804839
:101A4C0005F00105019508F5803806F0030B019DA2
:101A5C004FEA8B0BD8F8085009FA0BF925EA09095B
:101A6C00394DA84262D005F58065A84260D005F5D5
:101A7C008065A8425ED005F58065A8420CBF0325A1
:101A8C00042505FA0BF545EA0905C8F808509D68C8
:101A9C001AF4801F14BF2543A5439D60DD681AF41A
:101AAC00001F14BF2543A543DD605D681AF4003F99
:101ABC0014BF2543A5435D601D681AF4803F14BF15
:101ACC002C4325EA04041C60013671E7DFF87C9096
:101ADC004D450CD017D8A9F580194D4507D009F5FF
:101AEC0070294D4503D0A9F580194D4582D18A68DE
:101AFC00D2B1012A08BFC0F810804FF0080218BFFD
:101B0C00C0F8148076E76545F1D07545EEE7CA68F4
:101B1C0070E7CA6804326DE7CA6808326AE7CA68B7
:101B2C000C3267E7002265E7042263E70025A8E78B
:101B3C000125A6E70225A4E700100240000401409D
:101B4C00000031100000321000080140000022108B
:101B5C000AB1016170470904FBE7000010B548B3F6
:101B6C0014220168144B0B44B3FBF2F39B00036487
:101B7C00124BC363022380F82130D0E90134234394
:101B8C00C4680A682343046922F47F5223434469DE
:101B9C0022F03002234384692343C4692343134353
:101BAC000B6001220023836380F8203080F8212011
:101BBC00184610BD0120FCE7F8FFFDBF00000240F5
:101BCC0070B40425C66B026C3468036895402542DA
:101BDC00196832D04D0730D51A6896065EBF1A6860
:101BEC0022F004021A603E4A934219D014329342F6
:101BFC0018D01432934217D01432934217D01432A7
:101C0C00934217D0143293420CBF4FF480034FF021
:101C1C008063344A5360C36A002B5ED070BC184793
:101C2C000423F6E74023F4E74FF48063F1E74FF425
:101C3C008043EEE74FF48023EBE7022595402542E5
:101C4C0035D08D0733D51A68940606D41A6822F05D
:101C5C000A021A60012280F82120214A934219D0ED
:101C6C001432934218D01432934217D01432934248
:101C7C0017D01432934217D0143293420CBF4FF446
:101C8C0000134FF00073174A5360002380F8203084
:101C9C00836AC1E70223F6E72023F4E74FF40073CD
:101CAC00F1E74FF40053EEE74FF40033EBE7082570
:101CBC009540254211D009070FD5196821F00E0166
:101CCC001960012303FA02F27260836380F82130F9
:101CDC00002380F82030036B9EE770BC704700BF78
:101CEC00080002400000024007490302CA6803F4DE
:101CFC00E06322F4E0621204120C134343F0BF635E
:101D0C0043F40033CB60704700ED00E0164B30B568
:101D1C00DC68C4F30224C4F10703251D042B28BF7F
:101D2C000423062D4FF0FF3598BF002405FA03F36A
:101D3C0088BF033C21EA0303A34005FA04F422EA1A
:101D4C000402002843EA0203ACBF00F16040074ADA
:101D5C004FEA0313DBB2ABBF00F5614000F00F009C
:101D6C0080F80033135430BD00ED00E014ED00E0BA
:101D7C00002808DB0123420900F01F0003FA00F0E1
:101D8C00014B43F82200704700E100E000280DDB16
:101D9C000122430900F01F0002FA00F0044A20332C
:101DAC0042F82300BFF34F8FBFF36F8F704700BF14
:101DBC0000E100E00138B0F1807F0BD24FF0E0235E
:101DCC00F021054A586182F82310002007229861FF
:101DDC001A6170470120704700ED00E00122014BB1
:101DEC001A62704700000E4238B50446FFF7E2FA5B
:101DFC00054623685A68920605D500205A6842F0B9
:101E0C0010025A6038BDFFF7D5FA401BB0F57A7F47
:101E1C00EFD90320F6E7026838B55368044623F07F
:101E2C0010035360FFF7C6FA054623685B689B06F0
:101E3C0001D5002038BDFFF7BDFA401BB0F57A7F05
:101E4C00F3D90320F6E738B50446A8B10268536805
:101E5C0023F008035360FFF7ADFA054623685B686F
:101E6C001B0701D5002038BDFFF7A4FA401BB0F5C5
:101E7C007A7FF3D90320F6E70120F4E710B5044686
:101E8C0070B1437C03F0FF0213B9027402F054FBEF
:101E9C00022320466374FFF7D6FF18B10423637442
:101EAC0001202FE02046FFF79FFF0028F6D1226883
:101EBC00A068536823F007035360134A18B1116BE1
:101ECC0021F001011163D36A23F460730343D362DD
:101EDC006068431C05D10120FFF702FD0028DDD00E
:101EEC0001382368C0F3034280B29A60D860204660
:101EFC00FFF791FF012310B104226274D0E76373E2
:101F0C00E381637410BD00BF006C00402DE9F34702
:101F1C001F46894690460446FFF74CFA0A9D3D44FD
:101F2C002D1AFFF747FA8246254B1E68C6F3CB36AF
:101F3C006E4301962268936839EA03030CBF0123B0
:101F4C000023434501D100202EE07B1CF3D0FFF78A
:101F5C0031FAA0EB0A00A84229D323685A6822F070
:101F6C00E0025A606268B2F5827F0AD1A268B2F5CB
:101F7C00004F02D0B2F5806F03D11A6822F04002F4
:101F8C001A60A26AB2F5005F07D11A6822F40052F7
:101F9C001A601A6842F400521A60012384F8513016
:101FAC000023032084F8503002B0BDE8F087019B79
:101FBC00002B019B08BF0025013B0193BAE700BF32
:101FCC006400002073B50B4600920D4616460221A4
:101FDC0001220446FFF79AFF024628B1636D0320E5
:101FEC0043F02003636507E02B46802120460096D2
:101FFC00FFF78CFF0028F1D102B070BD10B504467C
:10200C00002851D0436A002B4AD14268B2F5827F36
:10201C0000D0C3610023A36294F8513003F0FF0297
:10202C0023B9204684F8502002F0A4FA0223226837
:10203C0084F851301368A06823F040031360636880
:10204C0000F4044003F482730343E068A16900F4D4
:10205C0000600343206900F002000343606900F054
:10206C000100034301F400700343E069090C00F024
:10207C0038000343206A01F0040100F080000343A0
:10208C00A06A00F40050034313605160D369002030
:10209C0023F40063D3610123606584F8513010BDD3
:1020AC000023C0E90433B5E70120F8E72DE9F3413B
:1020BC0004461E460D461746FFF77CF994F851303E
:1020CC008046012BD8B240F09F80002D70D0002F9D
:1020DC006ED094F85030012B00F09680032384F8D6
:1020EC0051300023A2686365B2F5004FC4E9103388
:1020FC00E786A363A387E38784F8500023682563EE
:10210C00A78607D11A6822F040021A601A6842F4B6
:10211C0080421A601A68E16852065EBF1A6842F083
:10212C0040021A60B1F5006F626847D10AB1012F05
:10213C0007D135F8022BDA602563E38E013B9BB2A5
:10214C00E386E38E9BB2D3B9424631462046FFF775
:10215C0039FF002855D1A36833B901932368DA6895
:10216C0001929B680193019B012384F85130002359
:10217C00606D84F85030C01A18BF012018E0226836
:10218C009368980705D5236B33F8021BD160236342
:10219C00D3E7FFF70FF9A0EB0800B0420BD3711C8B
:1021AC00CFD0012384F851300023032084F8503021
:1021BC0002B0BDE8F081002EC3D1F2E70AB1012FC5
:1021CC0008D12A781A73236B01332363E38E013B06
:1021DC009BB2E386E38E9BB2002BB5D023689A6842
:1021EC00920702D5226B1278ECE7FFF7E3F8A0EB2D
:1021FC000800B04202D3731CECD0D2E7002EE9D118
:10220C00CFE720236365A6E70220D1E72DE9F7434A
:10221C0004460D4691461E460A9FFFF7CBF894F8EC
:10222C0051308046012B6268D9B20AD0B2F5827F58
:10223C0040F0E880A368002B40F0E480042940F0D3
:10224C00E180002D4BD0B9F1000F48D0002E46D0C4
:10225C0094F85030012B00F0D580012384F85030D5
:10226C0094F85130C4F83890042B1CBF052384F823
:10227C00513000236365C4E910332368E687E68692
:10228C001968A687490658BF1968256358BF41F0DD
:10229C004001A68658BF1960E168B1F5006F55D1B1
:1022AC000AB1012E07D135F8022BDA60E38E2563D3
:1022BC00013B9BB2E3860125E38E9BB28BB9E38F86
:1022CC009BB273B9424639462046FFF77BFE002885
:1022DC0000F0848020236365002384F850300120B3
:1022EC0031E021688B689E070DD5E38E9BB253B10C
:1022FC004DB10025236B33F8022BCA602363E38EA8
:10230C00013B9BB2E3868A6812F001020CD0E38F8A
:10231C009BB24BB11546C968A36B23F8021BA36390
:10232C00E38F013B9BB2E387FFF744F8A0EB080077
:10233C00B842C1D3781CBFD0012384F8513000239C
:10234C00032084F8503003B0BDE8F0830AB1012EAD
:10235C0008D12A781A73236B01332363E38E013B74
:10236C009BB2E38601252DE02268936899070ED570
:10237C00E38E9BB25BB155B10025236B1B781373B5
:10238C00236B01332363E38E013B9BB2E38622680C
:10239C00916811F001010DD0E38F9BB253B10D4642
:1023AC00D268A36B1A70A36B0133A363E38F013B59
:1023BC009BB2E387FEF7FEFFA0EB0800B8420AD3FE
:1023CC007B1CB9D1E38E9BB2002BCDD1E38F9BB29A
:1023DC00002BC9D176E7002FF4D1ADE7A36833B950
:1023EC0001932368DA6801929B680193019B012396
:1023FC0084F851300023606D84F85030C01A18BF37
:10240C000120A0E702209EE790F851007047026877
:10241C0002F10C0353E8003F23F490730C3242E8B2
:10242C00003102680029F2D102F1140353E8003F95
:10243C0023F0010302F1140C4CE800310029F3D114
:10244C00036B012B0BD102F10C0353E8003F23F07B
:10245C00100302F10C0C4CE800310029F3D12023BD
:10246C0080F84230002303637047000010B5044627
:10247C000368C1681A6922F440520A431A618268DF
:10248C000069D9680243606921F4B05121F00C0154
:10249C0002430A43DA605A69A16922F440720A4382
:1024AC005A610E4A934215D1FFF70AFA1923434396
:1024BC00626820689200B3FBF2F36422B3FBF2F182
:1024CC0002FB11331B013233B3FBF2F303EB0113A9
:1024DC00836010BDFFF7E4F9E8E700BF0038014066
:1024EC00F7B505460C4617461E462A68136834EAAB
:1024FC00030301D1002021E0701CF7D0FEF75AFF36
:10250C00C01B86421CD3DEB12B68DA685107ECD5B0
:10251C00802CEAD0402CE8D01A681207E5D50024AC
:10252C0001941A68284601925B680193019BFFF79E
:10253C006EFF082301206B6485F8404003B0F0BDAA
:10254C000320FBE710B5044648B390F8413003F084
:10255C00FF021BB980F8402002F05EF824232268A9
:10256C0084F84130D368204623F40053D360FFF73E
:10257C007DFF236800201A6922F490421A615A697F
:10258C0022F02A025A61DA6842F40052DA602023FF
:10259C00606484F8413084F84230606310BD0120DF
:1025AC00FCE72DE9F843994690F841300446202B7E
:1025BC000E4617463FD100293FD0002A3DD021239B
:1025CC000025456480F84130FEF7F4FEA368804690
:1025DC00B3F5805FA784E78403D123690BB9354633
:1025EC001E46E38C9BB25BB94B46424640212046CB
:1025FC00FFF776FF202384F8413058B9BDE8F88303
:10260C004B46424680212046FFF76AFF20B120232B
:10261C0084F841300320F1E722684EB935F8023BCB
:10262C00C3F308035360E18C013989B2E184D8E724
:10263C0016F8013BF6E70220E0E70120DEE72DE982
:10264C00F8431F4690F842300446202B0E46914624
:10265C0048D1002948D0002A46D0222300254564C1
:10266C0080F842300563FEF7A5FEA3688046B3F5FB
:10267C00805FA4F82C90A4F82E9003D123690BB999
:10268C0035461E46E08D80B218B9202384F84230BE
:10269C000AE03B46424620212046FFF721FF28B1A5
:1026AC002023032084F84230BDE8F88323684EB918
:1026BC005B68C3F3080325F8023BE38D013B9BB237
:1026CC00E385DFE7A268B2F5805F02D032B92269F8
:1026DC0022B95968C9B206F8011BEEE7596801F036
:1026EC007F01F8E70220DFE70120DDE7034B1A1832
:1026FC0003EB80035B68107A5B6818475801002075
:10270C00064B1A5C42B901221A541A1803EB8003C7
:10271C005B68107A1B68184700207047580100202E
:10272C0030B4054C251804EB800460688468287A62
:10273C00A44630BC604700BF5801002030B4054CA3
:10274C00251804EB80046068C468287AA44630BC61
:10275C00604700BF5801002010B4044B1C1803EB59
:10276C0080035B68207A1B6910BC18475801002055
:10277C0001380A44914200D1704711F8013B00F82E
:10278C00013FF7E70244904200D1704700F8011B6B
:10279C00F9E700001F4A0346106830B578B1D3F84A
:1027AC000042844209D15468D3F80802844204D10F
:1027BC001489B3F80602844224D0002400E00124DA
:1027CC00D06890B1D3F80052A84209D11569D3F85A
:1027DC000802854204D1908AB3F80632984216D08A
:1027EC0074B902290CBF0020122030BD0C2101FB52
:1027FC0003235B89B3F5807F14BF00201020F4E71E
:10280C000020F2E700230029F0D01020EDE701238F
:10281C00F9E700BFBC000020244AF0B51368D0F8DB
:10282C0000629E4209D15568D0F80842A54204D1F5
:10283C00B0F806521489A54228D0D468B44209D104
:10284C001769D0F80852AF4204D1978AB0F80652F3
:10285C00AF4226D00BB134BB01230C245C431519B9
:10286C001651D0F80842B0F806026C60288100209E
:10287C00688199B90C2101FB03214989013189B285
:10288C000C2000FB0322581C5181F0BD00230029B1
:10289C00F0D00C2101FB0321498921B94FF480713F
:1028AC00EEE70123F3E70020EFE700BFBC000020B8
:1028BC000138012817D80C220C4902FB001253894D
:1028CC00B3F5807F06D1002353810C23584300239A
:1028DC000B5006E0002BF8D0013B9BB25381002B30
:1028EC00F3D0002070470220704700BFBC000020CE
:1028FC00054B1A68904204BF00221A60DA689042B5
:10290C0004BF0022DA607047BC000020D0F800221F
:10291C00490A92F80222D0F82432B1FBF2F10433C6
:10292C00186830B1814202D3091A0833F8E75868A5
:10293C0008447047034600F10B010020C20142EA33
:10294C00500013F8012B10448B4200F0FF00F5D11E
:10295C007047026810B552B111460B4611F8014B85
:10296C001F2C0CD93A2CF8D1511C8B4202D04FF0B1
:10297C00FF3005E01278302AF9D1013303600020D2
:10298C0010BD08B590B1D0F800327BB193F800229D
:10299C0062B1B3F80612B0F80422914206D193F852
:1029AC000102FFF7A3FE10F0010000D0092008BDC2
:1029BC00D0F81022F8B50C4601F109036AB30021D6
:1029CC002E27D0F814526E1E16F8012F0131202A32
:1029DC0019D0052A47D0092901D103F8017BA2F1AE
:1029EC00410CBCF1190F0CD808298CBF4FF0100CFE
:1029FC004FF0080C95F80CE01EEA0C0F1CBF2032AF
:102A0C00D2B203F8012B0B29DED1EA7A2272EA69E1
:102A1C0022602A8BA280EA8AE28000251D70A669BA
:102A2C002EB1D0F810321BB9002500237355F8BD18
:102A3C00E369002BF8D04FF6FF73B0F824229A42CA
:102A4C00F2D0D0F8207237F815000028EDD0002114
:102A5C0001F0F1FB0028E7D0E369013B9D42E3D292
:102A6C0070550135EFE709294FF0E502C9D1B4E7FC
:102A7C00F8B5D0F82C62014604460123324690F892
:102A8C000102FFF75BFE0546D0B9D4F82032D4F82A
:102A9C001822F31A934284F8040203D294F80372B6
:102AAC00012F01D82846F8BDD4F8183221461E440F
:102ABC003246012394F80102FFF740FE013FEFE795
:102ACC000125EFE790F804320BB1FFF7D1BF1846A0
:102ADC00704738B5D0F82C3205468B420C4611D0D5
:102AEC00FFF7F0FF68B922460123294695F8010249
:102AFC00FFF716FE00281CBF4FF0FF340120C5F86D
:102B0C002C4238BD0020FCE7002310B580F80432BD
:102B1C004FF0FF33C0F82C320446FFF7DAFFA0B9B0
:102B2C004AF65523B4F8FE219A4210D1D4F8363027
:102B3C00084A23F07F43934206D0D4F8520020F089
:102B4C007F40801A18BF012010BD0320FCE7022033
:102B5C00FAE700BF464154002DE9FF410023074628
:102B6C00036008461546FFF7F4FE061EC0F201810D
:102B7C00844B53F82640002C00F0FD803C6094F808
:102B8C00003273B194F80102FFF7B0FDC10708D40D
:102B9C001DB110F0040500D00A25284604B0BDE88C
:102BAC00F0810023F0B284F8003284F80102FFF7C0
:102BBC00A7FDC20700F1E1800DB14307ECD4002161
:102BCC002046FFF7A1FF0128054640F0B880E846F3
:102BDC00414604F5DF7304F5FF701A7902B19A6867
:102BEC001033834241F8042BF7D1002758F8046BBB
:102BFC00002E00F09C8031462046FFF785FF002810
:102C0C0040F09680B4F80B30B3F5007F40F09A801A
:102C1C00E08A00B9606A277CC4F818027B1E012B7D
:102C2C0084F8037200F28E80657B84F80252002DCA
:102C3C0000F088806B1E2B4240F08480B4F811C0E9
:102C4C001CF00F0FA4F808C27CD1B4F8133003B9F0
:102C5C00236AE289002A75D0474302EB1C113944E0
:102C6C008B426FD35B1AAB42B3FBF5FE6AD340F6D3
:102C7C00F5739E456AD94FF6F575AE4594BF02259E
:102C8C0003250EF1020332443144032DC4F81432EF
:102C9C00C4F81C62C4F82022C4F8281258D1BCF124
:102CAC00000F4FD1E26A9B00C4F8242203F2FF13F9
:102CBC00B0EB532F46D34FF0FF33C4E9833380235B
:102CCC00032D84F8053224D1238E012B21D12046EB
:102CDC00711CFFF7FEFEE0B94AF65523B4F8FE214D
:102CEC0084F805029A4214D12268274B9A4210D1DB
:102CFC0003F1FF53D4F8E42103F5005320339A4237
:102D0C0001BFD4F8E831C4F81032D4F8EC31C4F86F
:102D1C000C321E4A84F800521388204601339BB2B1
:102D2C00A4F8063213800025FFF7E2FD35E70220F8
:102D3C000137042F7FF45AAF032803D12DE7032862
:102D4C001DD008B10D2528E706465BE7012598E75D
:102D5C00BCF1000FF6D03A44022DC4F824224FEAFD
:102D6C0043021BBFD21803F00103134603EB5203BB
:102D7C009CE70B2511E70C250FE703250DE7012533
:102D8C000BE700BFB800002052526141D400002074
:102D9C0038B50446FFF796FE0546B8BB94F80032EA
:102DAC00032B2AD194F80532012B26D101464FF47E
:102DBC0000722046FFF7E6FC4AF65522A4F8FE21E5
:102DCC00134A2146226002F1FF5202F500522032D2
:102DDC00C4F8E421D4F8102294F80102C4F8E821D4
:102DEC00D4F80C22C4F8EC21D4F81C220132C4F81B
:102DFC002C22FFF7A3FC84F80552002294F8010260
:102E0C001146FFF7A9FC003818BF012038BD00BFE0
:102E1C005252614103284B8B04BF8A8A43EA024316
:102E2C0018467047D0F814320239023B8B4283BFEC
:102E3C0090F80232D0F8280201FB03000020704702
:102E4C000129F8B506460D4659D9D0F814328B42F3
:102E5C0055D990F80032022B27D0032B36D0012BFA
:102E6C004DD101EB5104D0F8201201EB5421FFF7A6
:102E7C0030FE10B14FF0FF30F8BDD6F82012671CB1
:102E8C003046C4F3080401EB5721345DFFF721FEF3
:102E9C000028EFD1C7F30807F05DEB0744EA0020E8
:102EAC004CBF0009C0F30B00E6E7D0F8201201EB91
:102EBC001521FFF70EFE0028DCD16D0005F4FF751F
:102ECC0073195B78705D40EA0320D5E7D0F82012C7
:102EDC0001EBD511FFF7FDFD0028CBD1AD0005F4BA
:102EEC00FE7573199878DA78000440EA0260725D16
:102EFC005B78104340EA032020F07040BCE70120CF
:102F0C00BAE7D0F8082270B5012A04460D46A0F89D
:102F1C00061201D1022070BDD0F80032D3F8141281
:102F2C009142F7D9FAB993F80012032902D1D3F8D8
:102F3C002412B9B9B3F80812A942EBD9D3F8240278
:102F4C00C4F80C220028E5D0D4F8001200EB1510C0
:102F5C0005F00F0501EB4515C4F81002C4F8145226
:102F6C000020D8E70A4693F802623601B5421146B2
:102F7C00D4F8000202D2FFF755FFE1E7FFF760FF3C
:102F8C00431C024609D00128C4D9D4F80032D3F826
:102F9C0014328342BED9AD1BE8E70120BBE70129FF
:102FAC002DE9F04105460C46164670D9D0F814327E
:102FBC008B426CD990F80032022B3CD0032B4BD0B7
:102FCC00012B64D101EB5107D0F8201201EB5721F2
:102FDC00FFF77FFD28BB14F0010407F10108C7F3CC
:102FEC00080717BFEB5DF3B203F00F0233011CBFF0
:102FFC0003F0F0031343EB550123D5F820122846B8
:10300C0085F8043201EB5821FFF763FD48B9C8F38A
:10301C00080844B1C6F3071205F80820012385F807
:10302C000432BDE8F08115F8082022F00F03C6F336
:10303C0003221A43F0E7D0F8201201EB1421FFF71A
:10304C0048FD0028EDD1640004F4FF742E55C6F33E
:10305C0007222C446270E1E7D0F8201201EBD41166
:10306C00FFF737FD0028DCD1A40004F4FE74291905
:10307C00CB781B0603F0704343EA0602C2F3072326
:10308C002A554B70130C120E8B70CA70C6E70220B7
:10309C00C7E7F8B505460F4689B9D0F80C62F6B10A
:1030AC00D0F814329E4228BF01263446D5F814328B
:1030BC000134A34216D8012E13D8002405E0FFF7E3
:1030CC00BFFE0128044602D801242046F8BD601C2E
:1030DC0035D0D5F81432A342F7D83E46E5E70126A1
:1030EC00E3E7022421462846FFF7AAFE30B1411C33
:1030FC0025D00128E8D0B442D8D1DEE76FF0704279
:10310C0021462846FFF74BFFB8B97FB9D5F81032E6
:10311C00C5F80C425A1CD8D0013BC5F8103295F8B2
:10312C00053243F0010385F80532CEE722463946D5
:10313C002846FFF734FF0028E8D00128C4D14FF00F
:10314C00FF34C2E72DE9F843B0F8066204460136B5
:10315C00B3B2894613B90420BDE8F883D0F8103215
:10316C00002BF8D016F00F080BD1D4F80C12013349
:10317C00D0F80002C4F8103269B9B0F80832B34282
:10318C00E9D9D4F80032002003EB4813A4F8066206
:10319C00C4F81432E0E790F80272013F17EA1617F0
:1031AC00EFD1FFF74DFE0128054601D80220D3E7E9
:1031BC00421C01D10120CFE7D4F80002D0F8143220
:1031CC00AB422FD8B9F1000FC5D0D4F80C12FFF7D1
:1031DC0060FF054600283ED00128E7D0431CE9D00B
:1031EC00D4F80002FFF76EFC01460028E2D14FF440
:1031FC000072D4F80002FFF7C5FAD4F80022294671
:10320C001046FFF70FFE4FF00109C2F82C02D4F85C
:10321C00000290F80232BB420ED8D0F82C32DB1BE5
:10322C00C0F82C322946D4F80002C4F80C52FFF72F
:10323C00F9FDC4F81002A4E780F80492FFF718FC1B
:10324C000028B7D1D4F800220137D2F82C32013340
:10325C00C2F82C32DBE707207EE700002DE9F74FA0
:10326C0000210646FFF74DFE0446002871D14FF0B1
:10327C00FF084FF6FF794546A6F82492D6F81012AF
:10328C00D6F80002FFF725FC0446002861D1D6F8D9
:10329C0014723B78002B7ED0E52B06D0F97A01F026
:1032AC003F02090704D50F2A04D0A6F8249256E051
:1032BC000F2A59D1D6F82042002C43D05A064CD5AF
:1032CC0003F0BF05B6F8063297F80D80A6F8243245
:1032DC007B7B434543D14FF00D0B4FF0010C3B78FA
:1032EC00DFF8B8A023F04003013B0BFB03FB1AF8FB
:1032FC00012BB9184878BA5C42EA0020BCF1000FE7
:10330C002FD000F09CFFBBF13F0F019027D80BF1A1
:10331C00010134F81B00009100F091FF019A8446E2
:10332C0082421CD100998B461D4B5345DFD13B7813
:10333C005B0605D5BCF1000F02D034F81B3073B915
:10334C00013DEDB200213046FFF7FCFE044600289B
:10335C0094D0204603B0BDE8F08FAB42B8D0FF2527
:10336C00F0E74845E0D0FAE725B93846FFF7E2FA2E
:10337C004045EED0D6F81832DC7A14F0010494D122
:10338C0007F10B008742E4D017F8011B13F8012B4F
:10339C009142F7D089E70424DBE700BF3D600008C9
:1033AC004A6000082DE9F74F0B7807462F2B88460B
:1033BC0001D05C2B01D108F101080024C7F80842A8
:1033CC0098F800301F2B00F2C08021463846FFF7DA
:1033DC0098FDC7F8144203B0BDE8F08F464629F8B3
:1033EC00020FC3E02028A04434BF04240024002E84
:1033FC0000F0DB8035F81630202B02D02E2B40F05D
:10340C00D880013EF3E701313AF81130202BFAD085
:10341C002E2BF8D009B144F0030435F816302E2BBE
:10342C0001D0013EF9D100234FF008091D463AF8AE
:10343C00110001F1010BC0B1202803D02E2805D1B9
:10344C005E4507D044F003045946F0E74B4505D2DE
:10345C005E4549D1B9F10B0F3FD102E0B9F10B0F29
:10346C0036D14FF00B0944F00304D7F818321A7810
:10347C00E52A04BF05221A70B9F1080F04BFAD008C
:10348C00EDB205F00C030C2B03D005F00302032A5C
:10349C0001D144F00204A10709D405F00305012D64
:1034AC0008BF44F01004042B08BF44F00804D7F8FC
:1034BC0018323846DC72FFF7D1FED7F81832DB7AB7
:1034CC0098B3042887D113F0040F08BF052082E7B6
:1034DC005E4502D044F00304C7D3AD00B3464FF0B1
:1034EC000B090823EDB2AFE77F280CD9002101931B
:1034FC0000F0A1FE44F00204019B58B1394A10447B
:10350C0010F8800C30B1384A12F8011B00295BD03E
:10351C008142F9D15F2044F00304D7F81812C85443
:10352C00013391E745F00205F7E75A073FF553AF32
:10353C00D7F81412CB7ADB0639D5D7F8003293F8CA
:10354C000002FFF767FCC7F8080298F80030444601
:10355C002F2B08F10108F8D05C2BF6D0D7F820A25D
:10356C000026AAF10205A94604F1FF3B1BF8010F46
:10357C0006F101081F287FF635AF2F283FF432AF34
:10358C005C283FF42FAFB8F1410F0ED0012100F0B1
:10359C0052FE50B17F283FF621AF144911F8012B90
:1035AC00002A3FF41BAF8242F8D1062013E7052016
:1035BC0011E7002320210B22D7F818022AF8163025
:1035CC00FFF7E0F819461FE7A0F141011929A9D925
:1035DC00A0F1610119299EBF203845F0010580B288
:1035EC009BE700BFBD5F0008B65F0008AD5F000839
:1035FC000C222DE9F04FD0F8186287B0D0F8207269
:10360C00054631460DEB0200FFF7B2F89DF8173076
:10361C00DB0740F1878000234FF00109DFF840827F
:10362C00F372C5F820320B22304603A9FFF7A0F83D
:10363C00B9F1050F53D94B46B81E30F8022F002AAA
:10364C003FD107220DF10B0003F00F0404F1300100
:10365C00392988BF04F137010F2B00F8011902F149
:10366C00FF324FEA13113CD87E2102F118036B4450
:10367C0003F8141C0023741E9A4203D0591C605C7E
:10368C00202830D13344072A8FBF202102F11801A2
:10369C00694411F8141C98BF013203F8011B991BE3
:1036AC000729F0D92846FFF7D9FD044698BB09F144
:1036BC000109B9F1640FB6D10724204607B0BDE863
:1036CC00F08F102102F0010404EB4303DC0348BF2C
:1036DC0083EA080301394FEA5202F3D1ADE74B46B6
:1036EC00AFE70B46B0E70B46C6E7013637F81630A6
:1036FC00002BFAD10D231936B6FBF3F617E0002692
:10370C00F4E7074601212846FFF71CFD0446B0B13B
:10371C00042CD1D0D1E70428CFD19DF81730F37207
:10372C00C5F820729DF817309B07E8D401260021BC
:10373C002846FFF7E6FB04460028E9D10746D5F8F2
:10374C001012D5F80002FFF7C4F904460028DFD1A7
:10375C00D5F814321B78E52B01D0002BD1D10137D1
:10376C00BE42CFD1013E59D0B5F806122846891B6E
:10377C00FFF7C7FB044600289FD1D5F81802FFF7C6
:10378C00D9F84FF00F0807464FF6FF79D5F810120D
:10379C00D5F80002FFF79DF90346044600288CD1AA
:1037AC000D249A46F0B2411E6143D5F81422DFF87D
:1037BC00B4E0D5F820C2577382F80B80137393765C
:1037CC00D3764B4518BF3CF811301EF8014B0AF16B
:1037DC00010A135518BF01314FEA132B1444002B67
:1037EC0008BF4B46BAF10D0F84F801B0E9D14B4537
:1037FC0002D03CF811300BB940F04000107001229F
:10380C00D5F800320021284683F80422FFF79AFCF1
:10381C00044600287FF451AF013EB7D1D5F8101201
:10382C00D5F80002FFF755F9044600287FF445AFA0
:10383C0001462022D5F81402FEF7A4FFD5E9850134
:10384C000B22FEF795FFD5E98523DB7A03F01803ED
:10385C0013730122D5F8003283F804222DE700BF40
:10386C00211001003D6000082DE9F047FF2680463D
:10387C00344604254FF6FF77D8F8101211B9002DF5
:10388C0069D058E0D8F80002FFF723F90546002864
:10389C0051D1D8F814020378002B65D0E52B50D009
:1038AC002E2B4ED0C27A02F03F0102F01F02082AE2
:1038BC0047D00F294AD1590641D503F0BF04B8F8B7
:1038CC000632467BA8F82432437BB34239D10D2211
:1038DC004FF0010E00210378D8F8205203F03F037B
:1038EC00013B5343DFF884C01CF8019B00EB090239
:1038FC0092F801A010F8092042EA0A22BEF1000F4A
:10390C0021D03F2B1DD8964625F8132001330131C9
:10391C000D29E9D10278520604D53F2B11D800228B
:10392C0025F81320013CE4B200214046FFF70AFCC5
:10393C0005460028A0D00023C8F810320CE0A342A2
:10394C00C2D0FF24F0E7BA42E1D0FAE73CB9FEF767
:10395C00F1FFB04203D100252846BDE8F0874FF6B1
:10396C00FF73A8F82432F7E70425E4E73D6000086C
:10397C00012970B505460C4629D9D0F814328B4272
:10398C0025D921462846FFF75BFA2646044608B996
:10399C00002070BD01281AD0411C1AD000223146DB
:1039AC002846FFF7FCFA0028F3D1D5F810325A1C40
:1039BC0008D00133C5F8103295F8053243F00103F5
:1039CC0085F80532D5F814329C42DAD3E0E70220B0
:1039DC00DFE70120DDE7000030B585B0CDE9001050
:1039EC0003A803911446FEF7B4FF011E19DB0F4D1B
:1039FC0055F8210020B1FEF77BFF002380F8003240
:103A0C00019810B1002380F8003245F8210030B144
:103A1C00012C08D10022694601A8FFF79DF805B0DA
:103A2C0030BD0B20FBE70020F9E700BFB8000020F9
:103A3C002DE9F041ADF5107D1746054601910028A2
:103A4C0000F09280002302F01E02C0F8003201A99F
:103A5C0086A8FFF781F820BB03AB8C93544B0199DC
:103A6C0006A88E93FFF79EFC07F01F048B9E40B9AF
:103A7C00DEB114F01E0F14BF0121002106A8FEF7C1
:103A8C0089FE17F01C0F64D088B1042809D1494B6A
:103A9C001A6812B1DB68002B68D106A8FFF7A8FDE5
:103AAC0070B10DF5107DBDE8F0810620E9E7F37AE1
:103ABC0013F0110F56D178075AD43B0733D502E0D7
:103ACC008B9E44F0080400F0CFFB0027C0F30723C3
:103ADC00B073F373030C000EF77237777777B77701
:103AEC00F77733747074869B314693F80002FFF7B6
:103AFC0091F901230146B776F77637757775869875
:103B0C000F4680F8043271B1D0F82C82FFF730FFE9
:103B1C000028C6D18698013F4146C0F80C72FEF7CA
:103B2C00D8FF0028BDD1869B2207D3F82C3248BF82
:103B3C0044F0200414F0FE0F14BF01210021C5E94C
:103B4C00873606A8FEF768FEC5F82802A0B9022041
:103B5C00A7E70028A5D1F37ADA060BD4BF07E2D584
:103B6C00D807E0D507209CE709209AE7122098E7B0
:103B7C00082096E7042094E785F806420024869FE7
:103B8C0085F8074297F800023146FFF743F9C5F86C
:103B9C001002F3692046C5E98243B7F80632C5F82E
:103BAC001842C5F82442C5F80072A5F8043278E72B
:103BBC00D6000020BC0000202DE9F74F9A460023C8
:103BCC00CAF80030044689461746FEF7DAFE054669
:103BDC0050BB94F807523DBB94F8063213F0010326
:103BEC00009300F0AE80D4E98226B61ABE4228BFFC
:103BFC003E46CEB1D4F80812C1F30803002B40F0B6
:103C0C009180D4F8000290F8028208F1FF3808EA9B
:103C1C00512818F0FF0820D151B9D4F8100201280E
:103C2C0012D8022584F80752284603B0BDE8F08F5D
:103C3C00D4F824321BB12046FEF768FEEFE7D4F827
:103C4C001412FFF7FDF8EAE7421C04D10123009D92
:103C5C0084F80732E8E7C4F81402D4F800B2D4F8B8
:103C6C0014125846FFF7DEF80028DAD0B6F5007FBC
:103C7C0000EB080733D39BF8022208EB5621914244
:103C8C004FEA5623494688BFA2EB08039BF8010272
:103C9C003A460193FEF744FD0028D7D194F806224A
:103CAC00019B12F0400F0CD0D4F81802C01B8342B9
:103CBC0007D94FF40072214609EB4020FEF758FD5E
:103CCC00019B5F02D4F80832B9443B44C4F8083273
:103CDC00DAF80030F61B3B44CAF8003089E7D4F818
:103CEC00182297421CD094F806325B060DD501239E
:103CFC0021469BF80102FEF721FD0028A6D194F87D
:103D0C00063223F0400384F80632D4F80002012373
:103D1C003A46214690F80102FEF702FD002895D1A3
:103D2C00C4F81872D4F808124846C1F30801C1F55A
:103D3C000077B74228BF374621443A46FEF718FDB4
:103D4C00C0E7072570E770B50446FEF71AFE002899
:103D5C0059D194F8063213F0200054D05B0611D5DB
:103D6C00D4F8000201232146D4F8182290F801025D
:103D7C00FEF7E4FC002845D194F8063223F040030A
:103D8C0084F80632D4F81C12D4F80002FEF7A1FE17
:103D9C000646C0BBD4F82052EB7A43F02003EB72FA
:103DAC00D4F80C322B77B4F80C321B0A6B77B4F8BE
:103DBC000E32AB7794F80F32EB77D4F81032AB7637
:103DCC00C3F307221B0C2B751B0A6B75EA7600F0EC
:103DDC004BFAC0F30723EB75030C2B76030EA87577
:103DEC006B76AE74EE7494F80632D4F8000223F0BD
:103DFC00200384F80632012380F80432BDE87040B9
:103E0C00FEF7C6BF012070BD10B50446FFF79BFF3F
:103E1C0050B92046FEF7B5FD30B9D4F82802FEF7AC
:103E2C0047FD08B9C4F8000210BD2DE9F84F04464F
:103E3C000E46FEF7A6FD054610BB94F80752FDB9D9
:103E4C00D4F82432002B00F08880721C3DD11E4621
:103E5C00D4F81082022756F804BBB8F1000F2BD00F
:103E6C0040464FF0000A01468146D4F80002FEF7A6
:103E7C00E7FF01280AF1010A07D8022584F8075246
:103E8C002846BDE8F88F8046EAE7431C01D101259E
:103E9C00F4E709F101098145E5D00237BB4521BFA3
:103EAC00334643F808ABC6F804801E46D4F80032FB
:103EBC00D3F814328342E6D8D4F824325F451F601D
:103ECC0000F2FA8000233360DAE7D4F80C128E4249
:103EDC0028BF0E46C4F80862002ED1D006F1FF3878
:103EEC0041462046FEF712FDD4F800720146C4F894
:103EFC0014023846FEF796FF0028BED0C6F308061B
:103F0C00002EBDD097F80262D4F81822013E06EAC2
:103F1C0058260644B242B3D094F8063259060DD551
:103F2C000123214697F80102FEF708FC0028AED1C8
:103F3C0094F8063223F0400384F80632D4F80002D9
:103F4C0001233246214690F80102FEF7E9FB0546B3
:103F5C0000289CD1C4F8186292E7D4F80C32B34212
:103F6C0005D294F8062212F0020F08BF1E4600225A
:103F7C00D4F80832C4F808226EB9D4E982329342DC
:103F8C007FF67EAFC4F80C3294F8063243F020036F
:103F9C0084F8063274E7D4F8000290F802727F02BB
:103FAC00002B3FD0013B721EB2FBF7F2B3FBF7F1D3
:103FBC008A4237D37A421340D4F81412C4F8083228
:103FCC00F61A002963D10026D4F80832C3F308038B
:103FDC00002BD2D0D4F81822B242CED094F80632AC
:103FEC005B0610D5D4F800020123214690F801029B
:103FFC00FEF7A4FB00287FF44AAF94F8063223F0B6
:10400C00400384F80632D4F80002012332462146DC
:10401C0090F80102FEF784FB00287FF438AFC4F857
:10402C001862AAE7D4F8101251B9FFF732F8012838
:10403C0001463FF422AF421C3FF429AFC4F81002F2
:10404C00C4F81412BDE794F80632D4F800029B07AA
:10405C0005D5FFF71EF8014620B93E4619E0FEF7DC
:10406C00EFFE01464A1C3FF412AF01297FF605AF63
:10407C00D4F80032D3F814328B427FF6FEAED4F86B
:10408C000832C4F814123B44C4F80832F61BBE4282
:10409C00D9D8D4F808323344C4F80832C6F308032C
:1040AC00002B90D0D4F80002FEF7BCFE00283FF4A1
:1040BC00E4AE00EB562687E71125E1E630B587B074
:1040CC0005460191002847D0002201A902A8FEF75D
:1040DC0043FD0446A8B9029B2846C5F8003203AB41
:1040EC00C5F818321D4B0199C5F82032FFF75AF963
:1040FC00044660BBD5F8141271B1CB7ADB0604D43C
:10410C0005240023C5F800321BE0029B93F8000243
:10411C00FEF780FEC5F80802029B0021B3F80632B8
:10412C002846A5F80432FEF7ECFE044678B9D5F81B
:10413C0008324BB101462846FEF76EFBC5F81C024F
:10414C0040B1204607B030BDC5F81C02F9E7042C7D
:10415C00D6D0D6E71224D4E70924F2E7D600002003
:10416C0038B50546FEF70DFC044628B9D5F81C02F7
:10417C0020B90023C5F80032204638BDFEF798FB65
:10418C000028F6D00446F7E77FB504460E46FEF746
:10419C00F8FB054608BB36B93146204604B0BDE8ED
:1041AC007040FEF7AEBE01ABC4F818320E4B204681
:1041BC00C4F82032FFF758FB042811D1C4F8105270
:1041CC0031462046FEF7F4FB00212046FEF7BAFFED
:1041DC00042807D10023C4F81032284604B070BD5F
:1041EC000028EDD00546F8E7D600002030B50F4B7F
:1041FC000546587A012816D800205C7AE4B2185586
:10420C005C7A03EB840465605C7A1C4422725A7AF3
:10421C00541CE4B25C723A234B702F2330320A7078
:10422C008B70C87030BD0120FCE700BF5801002026
:10423C000022FFF7DBBF802828BF00207047A0F1C9
:10424C006103192B9CBF203880B2704708B5034915
:10425C000348FFF7EDFF034B187008BDC0050020A5
:10426C0074000020C40500200020704708B501F040
:10427C00DDFB024B1870187808BD00BF70000020E1
:10428C0008B501F08FFC024B1870187808BD00BF00
:10429C007000002001F090BC01F0D4BC01F02ABDEC
:1042AC0010B590B01022002108A8FCF7BDF814221C
:1042BC00002101A8FCF7B8F802244FF4803309223E
:1042CC00CDE90D43CDE9062301224FF4E01306A8F6
:1042DC000A920C920F93FDF785F808B172B6FEE7BF
:1042EC000F23CDE901344FF480630390CDE9043002
:1042FC00214601A8FDF738FA08B172B6FEE710B0F6
:10430C0010BD0000102500B5544C89B0FDF734F8F1
:10431C00FFF7C6FF2A4600210DEB0500FCF784F8D9
:10432C00A36901222B43A361A36929462B40019366
:10433C00019BA3694A4843F02003A361A36903F0DE
:10434C0020030293029BA36943F00403A361A369B6
:10435C0003F004030393039BFDF7FAFB0123CDE960
:10436C00053303233E480DEB050107930495FDF738
:10437C0015FB6369002243F00103636163694FF429
:10438C00612403F0010311460C200493049BFDF7F8
:10439C00BDFC0C20FDF7ECFC3248334B0822C0E985
:1043AC0000340023C0E90233C0E905230361C36173
:1043BC00FEF7C8F8034608B172B6FEE72B482C4A44
:1043CC00C0E90233C0E900240C220361C0E90523D3
:1043DC00C361FEF7B7F8044608B172B6FEE74FF0BA
:1043EC00FF332448244A4FF40075C0E900234FF4EE
:1043FC0080738360FDF742FD4FF482731F482049A0
:10440C00C0E90244C0E900133823C0E906530A236B
:10441C00C0E90444C0E908448462C362FDF7EEFDC0
:10442C0008B172B6FEE7FFF711FF00F099FF1548CF
:10443C0000F098FFFDF772F90146134800F092FF67
:10444C00124800F08FFF124800F08CFF01F076F854
:10445C004FF47A70FCF7B4FFFAE700BF001002408B
:10446C0000080140C00600200044004078060020EF
:10447C00003801400C0600200028004020060020D7
:10448C00003001404A6000086D6000088E60000832
:10449C00B360000872B6FEE7FEE7FEE7FEE7FEE754
:1044AC00FEE77047704770470C4A13780133DBB254
:1044BC00092B02D81370FCF771BF00231370084A44
:1044CC0013781BB11378013BDBB21370054A1378D8
:1044DC00002BF0D01378013BDBB2EBE70807002090
:1044EC00D61A0020D71A00200148FDF769BB00BF7F
:1044FC00C80500200E4B82B09A6942F001029A6105
:10450C009A6902F001020092009ADA6942F0805234
:10451C00DA61DB69074A03F080530193019B53680E
:10452C0023F0E06343F00073536002B0704700BFA8
:10453C00001002400000014007B50B4B02689A4284
:10454C000FD1FDF74BFC094BDA6942F00062DA61DE
:10455C000122DB6903F000630193019B044BC3F858
:10456C003C2403B05DF804FB00280040001002401E
:10457C000000424270B5064686B01022002102A807
:10458C00FBF752FF3268204B9A423AD103F5604355
:10459C009A691E4842F480529A619A6902A902F4FF
:1045AC0080520092009A9A69002542F004029A61A6
:1045BC009B69A02203F004030193019B0223CDE924
:1045CC00022303230593FDF7E9F94023CDE90235D6
:1045DC0001230E4802A90E4C0493FDF7DFF90D4B95
:1045EC002046C4E900358023C4E90555C4E90335E8
:1045FC00A560E561FDF7B2FA08B1FFF74BFFF46473
:10460C00666206B070BD00BF00300140000801407A
:10461C00C80500201C000240102210B5044688B0CA
:10462C000DEB02000021FBF7FFFE2368254A9342A5
:10463C002AD1254B4FF400719A69244842F48042E8
:10464C009A619A6902F480420092009A9A6942F047
:10465C0004029A619B6903F004030193019B0223FA
:10466C00CDE90413032304A90793FDF797F900235D
:10467C004FF48060CDE9040301230693134804A989
:10468C00FDF78CF908B010BD114A9342FAD10E4BCC
:10469C00DA6942F40032DA61DA6902F40032029229
:1046AC00029A9A6942F004029A619B69042203F00F
:1046BC0004030393039B0223CDE9042303230793F1
:1046CC00DCE700BF00380140001002400008014048
:1046DC00004400400B4A0346116810B509B90A4959
:1046EC001160106809490A4C0344091B8B4206D916
:1046FC00FBF74AFD0C2303604FF0FF3010BD136035
:10470C00FCE700BF0C070020D81A00200050002046
:10471C0000040000FCF70AFE0B480C490C4A00236D
:10472C0002E0D458C4500433C4188C42F9D3094A5B
:10473C00094C002301E013600432A242FBD3FBF7C7
:10474C0029FDFFF7DFFD7047000000208C000020E2
:10475C00B46800088C000020D81A0020FEE7000086
:10476C0002464FF480510148FDF7F2B900080140B0
:10477C00124B10B59A6986B042F004029A619B699B
:10478C0003F004030193019B0D4B1B6823B11A68C2
:10479C00536923F44073536101244FF48053CDE9E2
:1047AC000234032302A9074805930494FDF7F6F895
:1047BC002046FFF7D5FF06B010BD00BF0010024029
:1047CC001407002000080140F8B50E4B01461A886A
:1047DC000D48202A16464FF0000428BF202600F072
:1047EC00C1FD0A4D0A4FA3B29E4204D8BDE8F84061
:1047FC00084800F0B7BD384615F8011B00F0B2FDB3
:10480C000134F0E79E080020F96000089E070020A4
:10481C0003610008F6600008F8B504465527084EF9
:10482C00FCF7C8FD054633681B0603D5013C7760D1
:10483C00F6D104E0FCF7BEFD401B0528F3D9F8BD0A
:10484C000038014037B500240F4B104D1C702B68FD
:10485C0025201A68D36823F02003D360FDF796FA5D
:10486C002B6873B11A680194116801915168019118
:10487C0001991168526820225C6483F8412083F806
:10488C00422003B030BD00BF1807002014070020E1
:10489C002DE9F34788460021534EDFF8509104462A
:1048AC004FF4807252483180FBF7BEFDD9F80030CE
:1048BC001B685B6802230122D9F800000DF1070187
:1048CC00FDF7BDFE0028F5D043464A49D9F8000053
:1048DC00A2B2FDF766FE002840F08280FCF76AFD6C
:1048EC0005460746424CDFF810A1FCF763FDC01BE0
:1048FC00404502D36FF0010051E002230122D9F8A8
:10490C0000000DF10701FDF79AFE00284AD1FCF7D3
:10491C0051FD33880546FF2B9FBF5A1C32809DF8F2
:10492C000720E2549AF8003032886BB9012ADCD99E
:10493C00217850290AD16178442907D13380FCF7BA
:10494C0039FD07460546D0E7012ACED921784F29F3
:10495C000DD163784B2BC8D1032AC6D96388FC2BA5
:10496C0028BFFC2304339A42BFD3002017E046290A
:10497C00BBD161784C29B8D133B1032AB5D9618840
:10498C001E4800F0EFFC08E0032AAED96388FC2B2C
:10499C0028BFFC2304339A42A7D36FF0020002B065
:1049AC00BDE8F0873388012B9FD923784F2B0BD090
:1049BC002378462B99D163784C2B96D1FCF7FAFCD3
:1049CC00401B072891D9E8E763784B2B8DD1FCF776
:1049DC00F1FC401B0728C8D83388012BE8D884E7A2
:1049EC004FF0FF30DBE700BF9E08002014070020CB
:1049FC009E070020A0080020100700200961000875
:104A0C007FB50D4606461446FFF70FFA014638B13E
:104A1C002A460C4800F0A6FC6FF0080004B070BDEC
:104A2C0009492246304603ABFFF7C6F8014610B9D8
:104A3C00039B9C42F2D02A46039B0448009400F04E
:104A4C0091FCE9E719610008A40800203061000816
:104A5C0010B5074B1B784BB91A46064911F8014B98
:104A6C00013290422344F9D1D8B210BD0020FCE7AA
:104A7C0010070020A20800206022054B4FF47A7129
:104A8C001A70002204205A709A70DA70FFF700BF77
:104A9C00A00800200D4B10B51A6812F02F0F13D080
:104AAC0058680B4B1B787BB10A4A0B491388098851
:104ABC00013303F07F0389B2994205D01188074C6A
:104ACC0089B2C0B26054138010BD00BF00380140E1
:104ADC00180700209C0700209A07002019070020C7
:104AEC00014B1860FFF744BE140700202DE9F04F6E
:104AFC00B44B9FB01B68CDE90201002B00F0188469
:104B0C00002800F01584002900F01284AE4800F053
:104B1C0029FC039BAD48D3F80C22029B4FF00008F4
:104B2C00D3F80C1200F01EFCA94800F01BFC01206D
:104B3C00A84FC346387000F014FC402200210EA888
:104B4C00FBF772FCFFF714FE0120FFF709FE0020B3
:104B5C00FFF706FE1E20FCF733FC9F4B1A685B68C0
:104B6C009E4BA3F800B09E4BA3F800B0954B1B686E
:104B7C001A686BB1CDF834B011680D9151680D9174
:104B8C000D992021C3F844B083F8411083F84210EA
:104B9C0001240025934B21461C70D368252043F03B
:104BAC002003D3600022FDF7B1F82520FDF7E0F8D3
:104BBC002046FFF7D5FD8A20FFF72EFEFCF7FAFB07
:104BCC00AA464FF08A092C460590FCF7F3FB059B8F
:104BDC00C01AB0F57A6F4CD3FFF734FE53464A46F1
:104BEC002946814800F0BEFBB4F5807F28BF4FF406
:104BFC0080747E4BA2B20EA97D481A8008F1010880
:104C0C00FBF720FB7B48FFF7DFFD41467A4800F0BD
:104C1C00A9FBB8F1060F90D1784800F0A3FB002057
:104C2C00387000F09EFB6FF0010528461FB0BDE800
:104C3C00F08F04F17803661C0DEB0304049BB6B2F1
:104C4C0004F8403C15B10E2E12D93FE0172E0FD9A7
:104C5C000EABA6F11800182269491844FBF7BEFAEE
:104C6C000446B0B94946674800F07CFB012526464E
:104C7C0034465B4B594A1B8812889BB292B29342C2
:104C8C000BD1002DA1D11020FFF7C6FD09F11009A1
:104C9C009BE70025ECE70125EAE75B4A3F2CD25C59
:104CAC0003F1010304924E4A03F07F0313800AF1CF
:104CBC00010ABED93F220DF139010EA8FBF738FBD2
:104CCC00049B26468DF87730002DC1D00EABA6F193
:104CDC000F000F224D491844FBF780FA05460028B7
:104CEC00D9D1FFF7AFFD4A464FF01009514648485D
:104CFC0000F038FB474800F035FB4FF00408CA467B
:104D0C00454CDFF818B100264FF47A71042084F872
:104D1C0000A06670A670E670FFF7BAFDB04218DB13
:104D2C00334BDFF8C880D3F804A03C48FFF74CFDA8
:104D3C005146B8F800203A4800F014FB029BD3F817
:104D4C000CA2BAF1BF0F514618D8364800F00AFB36
:104D5C00CDE05846FFF738FDB8F101080AD13248CA
:104D6C0000F000FB87F80080404600F0FAFA6FF084
:104D7C0002055AE73220FCF723FBC4E72B4800F06E
:104D8C00F1FAB02231460298FFF73AFE0028C0F241
:104D9C00738111234FF0B00B2370B22084F802B052
:104DAC00E670FFF755FE4FF47A716070B420FFF790
:104DBC006FFD002840DA1E4800F0D4FA1D48FFF7BA
:104DCC0003FD94E0140700204F6100086D6100089A
:104DDC008561000810070020003801409C07002066
:104DEC009A070020180700200E6200089E08002079
:104DFC009E0700203E62000845620008A66100087C
:104E0C00D6650008BD61000819070020C6650008BA
:104E1C00DC610008F9610008A0080020606200084D
:104E2C007D6200089A62000869620008B962000895
:104E3C00DA620008F1620008102259460298FFF766
:104E4C00DFFD0028C0F21881172323703B7884F80B
:104E5C000290E670002B51D04FF0FF33BD49BE4895
:104E6C0011F8012B5340082203F0010C5B08BCF134
:104E7C00000F00D04340013AF6D101360C2EEFD191
:104E8C00DB43190A23746174190C1B0EE374B14BC8
:104E9C00A17462700EAE03F1100C3246186859689A
:104EAC00083303C263451646F7D14FF47A711420C8
:104EBC00FFF7EEFC002817DB3B7823B3B8F8006053
:104ECC00132E0AD9A5488278102A06D1C37823B9A3
:104EDC000EA90430FBF782F9A8B1A148314600F0C5
:104EEC0041FAA048FFF770FC9F4800F03BFA6FF0C6
:104EFC0003050020387000F034FA96E61220FFF714
:104F0C00A7FD6070D1E7D4F8088008F1C0039A457A
:104F1C0002D24146954819E74146954800F022FADD
:104F2C0046464FF0000BDFF84CA286B919234FF41C
:104F3C007A71042023706670A670E670FFF7A8FCE7
:104F4C00002834DA8C4800F00DFA8C4837E7B6F5B7
:104F5C007F6FB14628BF4FF47F6902984A460BF128
:104F6C00C001FFF74DFD0028C0F286804FF01803FA
:104F7C0023704FEA1923E37084F8029009F10200C0
:104F8C00FFF766FD40F6B831607009F10400FFF7D9
:104F9C007FFC002802DA59467948D7E6CB444246D2
:104FAC0059465046A6EB090600F0DCF9BDE77548FA
:104FBC0000F0D8F91A2323703B7841F28831002B8A
:104FCC0018BF4FF47A7104206670A670E670FFF774
:104FDC005FFC3B78002B42D0002804DA023046D12B
:104FEC00694800F0BFF92820FCF7EAF9674800F09F
:104FFC00B9F93B78DFF89881002B14BF32204FF4BD
:10500C007A70FCF7DDF900233B701F46DFF88491C2
:10501C00142255214046FBF707FA4FF47A711420FD
:10502C00FFF736FC00282ADB5B4800F09BF90A20CE
:10503C00FCF7C6F94FF00008362340F6B8310420CF
:10504C00237084F8018084F8028084F80380FFF7D1
:10505C001FFC404523DA514800F084F984E6831C98
:10506C0003D14F4800F07EF9C0E70028BEDA4D4866
:10507C0000F078F94C48A2E66FF0080539E70137E3
:10508C003946484600F06EF9062F04D1474800F027
:10509C0069F90020C5E51420FCF792F9B8E72F490F
:1050AC004348CB7900938B794A79097900F05AF906
:1050BC00039BD3F80C724FB93E4800F053F96FF0D4
:1050CC00070529463C4800F04DF92FE1414603986D
:1050DC00FEF7ABFE814630B10146384800F042F98C
:1050EC006FF00805EDE73946354800F03BF93946D5
:1050FC00344800F037F9FCF75DF9302323700823AE
:10510C00A370FBB204932372C7F307430593A372F6
:10511C00C7F3072B3B0E80464EF660210C2084F81B
:10512C00019084F8039084F8049084F8059084F836
:10513C00069084F8079084F809B0E3720693FFF7A1
:10514C00A7FB002842DA204800F00CF96FF00405A8
:10515C00B7E700BFA40800202083B8ED9E0700200D
:10516C00F562000815630008196300083363000832
:10517C004F6300087E6300088F630008A16300087A
:10518C0061630008A5630008B563000805640008A6
:10519C00A00800201D6400083F6400084C6400084F
:1051AC00D4630008F0630008016400083064000850
:1051BC006164000881640008B0650008926400080E
:1051CC00A5640008B9640008CE640008FCF7F2F886
:1051DC00A0EB0801584800F0C5F8FCF7EBF8DFF835
:1051EC005CA10290AAF10804BA1BB2F5805F28BF3B
:1051FC004FF48052514603980EAB9146FEF7DCFCFF
:10520C00804608B90E9B33B9324641460E9B4C483A
:10521C0000F0A8F864E7994528BF994609F1040302
:10522C00C3F307230793C6F307230893C6F3074377
:10523C000993330E0A9304230B934FF0310323701D
:10524C00079B09F10401E370089BA1706371099B32
:10525C0084F80180A3710A9B2671E37109F10600A1
:10526C00FFF7F6FB42F21071607009F10800FFF7CE
:10527C000FFB00280B9B26DB4E44C6F311030BB12E
:10528C00B742B1D83A4631462E4800F06BF8B742D7
:10529C00AAD8FCF78FF8029B0026C11A2A4800F006
:1052AC0061F83A2342F21071042023706670A670E4
:1052BC00E670FFF7EDFAB0420EDA244800F052F82F
:1052CC006FF00605FDE6013BB6D13146204800F0F3
:1052DC0049F86FF00505F4E6FFF7CEFB3E2323708B
:1052EC000823A370049B44F620612372059B0C20B9
:1052FC00A372069B6670E67026716671A671E671E4
:10530C0084F809B0E372FFF7C3FA002801DA1148F8
:10531C00D4E7FFF7B1FB104800F024F8FFF728FAA8
:10532C000120FFF71DFA0D4800F01CF80020E2E503
:10533C006FF0070579E400BFE2640008A8080020BC
:10534C00F56400082A650008396500084E650008F8
:10535C001465000861650008736500087F65000826
:10536C00704770470FB400B5A1B022AB53F8042BB3
:10537C00782102A80193FBF735FA002809DD77287C
:10538C00A8BF77204FF47A7382B202A90348FDF7C5
:10539C0008F921B05DF804EB04B07047C00600209A
:1053AC000346806908B102780AB903F10900704715
:1053BC0030B50E4D421E013912F8010F11F8013FA4
:1053CC0000B11BB9C31A5842584130BD2C5C04F0D3
:1053DC000304012CEC5C08BF203004F00304012C06
:1053EC0008BF20339842E7D00020EEE7715E00083A
:1053FC00F0B5114E0378024601300BB918461AE08D
:10540C000E4F541E02F10C0114F8013F002BF1D089
:10541C00F25C02F00302012A17F8012B08BF2033BB
:10542C00B55C05F00305012D08BF20329342E1D194
:10543C00A142E9D10120F0BD715E0008EF650008C2
:10544C0041232DE9F04FADF53B7D0A930023074630
:10545C000E460DF12C08354930A8CDF824808DF876
:10546C007030FEF72BFE044620B100200DF53B7D7D
:10547C00BDE8F08FDFF8B8B0DFF8B0A0DFF8B4907B
:10548C00002303A930A888F80030FEF77DFE002821
:10549C003ED19DF81530002B3AD09DF81430DB0628
:1054AC00EED403A8FFF77CFF39460546FFF780FFD3
:1054BC0058B150211D4B1F4A30460095FBF744F85C
:1054CC0030A8FEF74DFE0120D0E739460DF115004E
:1054DC00FFF76EFF0028ECD1002CD1D12846FBF74A
:1054EC0053F90328CCD9043859462844FFF760FFF8
:1054FC000028C5D02846FFF77BFF0028C0D15346B3
:10550C004A46502100951CA8FBF71EF80124B7E76A
:10551C0030A8FEF725FE002CA7D050213046064AB5
:10552C001CABFBF711F80220A0E700BFC005002060
:10553C0095660008FD6500083F6700082DE9F043FB
:10554C009048ADF53B7DFFF70DFF8F48FFF70AFF45
:10555C008E48FFF707FF8E4B8E4A8F498F48FFF717
:10556C0001FFC820FBF72CFF8B4901228C48FEF76A
:10557C0033FA014648B18B48FFF7F4FE8A480DF523
:10558C003B7DBDE8F043FFF7EDBE8848FFF7EAFE30
:10559C0041231CAD804930A811951293FEF78EFD66
:1055AC000BAC024600284DD07B498148FFF7DAFE50
:1055BC0041232946774809940A93FFF741FF0128B4
:1055CC0038D029467B48FFF73BFF012832D02946CB
:1055DC007948FFF735FF01282CD06F4930A8FEF72A
:1055EC006DFD064600286AD1267003A930A8FEF787
:1055FC00CBFD002860D19DF81530002B5CD09DF8B8
:10560C001430DB06F0D403A8FFF7CAFE0746FFF7F9
:10561C00EFFE28B90DF11500FFF7EAFE0028E3D0E4
:10562C00502128465C4B654A0097FAF78DFF30A84D
:10563C00FEF796FD564830A9FFF702FF00284AD125
:10564C005F483DE05F48FFF78DFE5F4FDFF87C81E0
:10565C005F4E002321462B7030A8FEF795FD20BB32
:10566C00637A13B3237A204613F0100F14BF44212E
:10567C004621FFF795FED4F8009003464A4638467B
:10568C00FFF770FE637A63B12046FFF789FE0DF1D8
:10569C003501FAF79BFF20B140460DF13501FFF7BC
:1056AC0061FE3046FFF75EFED3E730A8FEF758FDEB
:1056BC004848FFF757FE7BE730A8FEF751FD4648F8
:1056CC00FFF750FE002234491046FEF785F90DF520
:1056DC003B7DBDE8F083022804D12D493F4830AA18
:1056EC00FFF740FE3E4E012229463046FEF7A0F958
:1056FC0028B1024629463B48FFF734FEE2E7DFF8C3
:10570C00E8802946D6F80C223848FFF72BFE0122F8
:10571C00404630A9FEF78CF9044640B1024630A948
:10572C003048FFF71FFE3046FEF76EFBCAE7D8F88D
:10573C000C2230A92E48FFF715FE2E48FFF7D0F9A2
:10574C002D48FFF70FFE4FF47A70FBF739FE4146F8
:10575C003046FFF7CBF905464046FEF755FB304681
:10576C00FEF752FB224620460B49FEF735F91DB9D0
:10577C002248FFF7F7FDAAE729462148FFF7F2FD7B
:10578C00A5E700BF02660008266600084E66000802
:10579C008066000863670008C00500209A66000850
:1057AC0064010020B8660008CB660008FE6600089D
:1057BC000B6700085D67000875670008FD65000849
:1057CC00B5670008216700083567000842670008C4
:1057DC00F66000084967000891670008D067000868
:1057EC00A8180020E767000894030020FA67000857
:1057FC001668000878060020316800084768000821
:10580C005968000807B58DF807000748FCF7FCFD40
:10581C0001280246F9D164230DF107010248FCF777
:10582C0045FC03B05DF804FB20060020002210218B
:10583C000148FCF78DB900BF00080140012210217E
:10584C000148FCF785B900BF000801401FB5FF23D4
:10585C008DF80E3000238DF80F300A48FCF7D4FD7C
:10586C0001280346F9D164220DF10E01009205487E
:10587C000DF10F02FCF7CAFC9DF80F0005B05DF8A6
:10588C0004FB00BF2006002037B5FFF7D7FF0A2422
:10589C00FF20FFF7B7FF013CFAD1FFF7C7FF40230A
:1058AC008DF8003095236D468DF801408DF802403F
:1058BC008DF803408DF804408DF8053015F8010B78
:1058CC000134FFF79FFF062CF8D14FF40054FFF77B
:1058DC00BDFF012801D0013CF9D1FFF7AFFFFF203C
:1058EC00FFF790FF0122024B1A7003B030BD00BFCE
:1058FC00D51A0020322310B5054C2370FFF7A6FFF4
:10590C00FFF7A4FFFF2802D02378002BF8D110BD9D
:10591C00D71A002038B504460D46FFF7EBFFFF28D9
:10592C0028D12046FFF76EFF280EFFF76BFFC5F35B
:10593C000740FFF767FFC5F30720FFF763FFE8B2E7
:10594C00FFF760FF402C13D0482C14BF0020872099
:10595C00FFF758FF4C2C01D1FFF778FF0A24FFF713
:10596C0075FF030603D5013C14F0FF04F7D138BDD5
:10597C009520EDE7FF20FAE70A2370B504460D46A3
:10598C000E4E3370FFF762FFFF2805D1337803F01A
:10599C00FF00002BF6D170BDFE280DD12544AC4282
:1059AC0005D1FFF753FFFFF751FF0120F3E7FFF796
:1059BC004DFF04F8010BF2E70020ECE7D61A0020AB
:1059CC0038B504460D46FFF795FFFF2801D000209F
:1059DC0038BD2846FFF716FFFD2DF8D004F50075ED
:1059EC00AC421BD1FFF732FF4125FFF72FFFFFF72A
:1059FC002DFF00F01F04052C03D0013D15F0FF0511
:105A0C00F5D11423084D2B70FFF720FF10B92B781C
:105A1C00002BF9D1631F58425841D9E714F8010BF8
:105A2C00FFF7F0FEDCE700BFD61A00202DE9F743A4
:105A3C00002840F0AA80564D2B789B0704D5287877
:105A4C00C0B203B0BDE8F083524EF369382B04D0DA
:105A5C0038233046F361FCF7D1FAFFF715FFFFF757
:105A6C00E5FE00214020FFF755FF012804467ED1BA
:105A7C006423494F4FF4D57148203B70FFF74AFF20
:105A8C00012852D10DF10408C1460424FFF7DEFEB3
:105A9C00013C14F0FF0409F8010BF7D19DF8063016
:105AAC00012B64D19DF80730AA2B60D100217720FF
:105ABC00FFF730FF012830D93B78002BF6D13B782B
:105ACC00002B54D000217A20FFF724FF00284ED160
